{
  "_format": "hh3-artifact-1",
  "contractName": "MiPrimerContrato",
  "sourceName": "contracts/MiPrimerContrato.sol",
  "abi": [
    {
      "inputs": [
        {
          "internalType": "string",
          "name": "_nombre",
          "type": "string"
        }
      ],
      "name": "cambiarNombre",
      "outputs": [],
      "stateMutability": "nonpayable",
      "type": "function"
    },
    {
      "inputs": [],
      "name": "nombre",
      "outputs": [
        {
          "internalType": "string",
          "name": "",
          "type": "string"
        }
      ],
      "stateMutability": "view",
      "type": "function"
    }
  ],
  "bytecode": "0x6080604052348015600e575f5ffd5b506103768061001c5f395ff3fe608060405234801561000f575f5ffd5b5060043610610034575f3560e01c80631dd4560614610038578063bc7b35b21461004d575b5f5ffd5b61004b610046366004610119565b61006b565b005b61005561007a565b60405161006291906101cc565b60405180910390f35b5f6100768282610285565b5050565b5f805461008690610201565b80601f01602080910402602001604051908101604052809291908181526020018280546100b290610201565b80156100fd5780601f106100d4576101008083540402835291602001916100fd565b820191905f5260205f20905b8154815290600101906020018083116100e057829003601f168201915b505050505081565b634e487b7160e01b5f52604160045260245ffd5b5f60208284031215610129575f5ffd5b813567ffffffffffffffff81111561013f575f5ffd5b8201601f8101841361014f575f5ffd5b803567ffffffffffffffff81111561016957610169610105565b604051601f8201601f19908116603f0116810167ffffffffffffffff8111828210171561019857610198610105565b6040528181528282016020018610156101af575f5ffd5b816020840160208301375f91810160200191909152949350505050565b602081525f82518060208401528060208501604085015e5f604082850101526040601f19601f83011684010191505092915050565b600181811c9082168061021557607f821691505b60208210810361023357634e487b7160e01b5f52602260045260245ffd5b50919050565b601f82111561028057805f5260205f20601f840160051c8101602085101561025e5750805b601f840160051c820191505b8181101561027d575f815560010161026a565b50505b505050565b815167ffffffffffffffff81111561029f5761029f610105565b6102b3816102ad8454610201565b84610239565b6020601f8211600181146102e5575f83156102ce5750848201515b5f19600385901b1c1916600184901b17845561027d565b5f84815260208120601f198516915b8281101561031457878501518255602094850194600190920191016102f4565b508482101561033157868401515f19600387901b60f8161c191681555b50505050600190811b0190555056fea2646970667358221220b812a06b22c1d118dc0b57693ca00533d62b50c4e93d9813047c25b10923a00c64736f6c634300081c0033",
  "linkReferences": {},
  "deployedLinkReferences": {},
  "immutableReferences": {},
  "inputSourceName": "project/contracts/MiPrimerContrato.sol",
  "buildInfoId": "solc-0_8_28-ab41ae0baae83b88d5a98233840e03931cad9b21"
}